{
  "contractName": "Token",
  "abi": [
    {
      "inputs": [],
      "payable": false,
      "stateMutability": "nonpayable",
      "type": "constructor"
    },
    {
      "anonymous": false,
      "inputs": [
        {
          "indexed": true,
          "name": "_from",
          "type": "address"
        },
        {
          "indexed": true,
          "name": "_to",
          "type": "address"
        },
        {
          "indexed": false,
          "name": "_tokenId",
          "type": "uint256"
        }
      ],
      "name": "Transfer",
      "type": "event"
    },
    {
      "anonymous": false,
      "inputs": [
        {
          "indexed": true,
          "name": "_owner",
          "type": "address"
        },
        {
          "indexed": true,
          "name": "_approved",
          "type": "address"
        },
        {
          "indexed": false,
          "name": "_tokenId",
          "type": "uint256"
        }
      ],
      "name": "Approval",
      "type": "event"
    },
    {
      "constant": true,
      "inputs": [],
      "name": "totalSupply",
      "outputs": [
        {
          "name": "totalTokens",
          "type": "uint256"
        }
      ],
      "payable": false,
      "stateMutability": "view",
      "type": "function"
    },
    {
      "constant": true,
      "inputs": [
        {
          "name": "_owner",
          "type": "address"
        }
      ],
      "name": "balanceOf",
      "outputs": [
        {
          "name": "balance",
          "type": "uint256"
        }
      ],
      "payable": false,
      "stateMutability": "view",
      "type": "function"
    },
    {
      "constant": false,
      "inputs": [
        {
          "name": "_tokenId",
          "type": "uint256"
        }
      ],
      "name": "ownerOf",
      "outputs": [
        {
          "name": "owner",
          "type": "address"
        }
      ],
      "payable": false,
      "stateMutability": "nonpayable",
      "type": "function"
    },
    {
      "constant": false,
      "inputs": [
        {
          "name": "_tokenId",
          "type": "uint256"
        }
      ],
      "name": "takeOwnership",
      "outputs": [],
      "payable": false,
      "stateMutability": "nonpayable",
      "type": "function"
    },
    {
      "constant": false,
      "inputs": [
        {
          "name": "_to",
          "type": "address"
        },
        {
          "name": "_tokenId",
          "type": "uint256"
        }
      ],
      "name": "approve",
      "outputs": [],
      "payable": false,
      "stateMutability": "nonpayable",
      "type": "function"
    },
    {
      "constant": false,
      "inputs": [
        {
          "name": "_to",
          "type": "address"
        },
        {
          "name": "_tokenId",
          "type": "uint256"
        }
      ],
      "name": "transfer",
      "outputs": [],
      "payable": false,
      "stateMutability": "nonpayable",
      "type": "function"
    },
    {
      "constant": true,
      "inputs": [
        {
          "name": "_tokenId",
          "type": "uint256"
        }
      ],
      "name": "tokenMetadata",
      "outputs": [
        {
          "name": "infoUrl",
          "type": "string"
        }
      ],
      "payable": false,
      "stateMutability": "view",
      "type": "function"
    }
  ],
  "bytecode": "0x608060405234801561001057600080fd5b506000806001915073a14383847701e86bd9a9d12b55add2c34fac3b05905060016000808373ffffffffffffffffffffffffffffffffffffffff1673ffffffffffffffffffffffffffffffffffffffff1681526020019081526020016000208190555060016003600084815260200190815260200160002060006101000a81548160ff021916908315150217905550806001600084815260200190815260200160002060006101000a81548173ffffffffffffffffffffffffffffffffffffffff021916908373ffffffffffffffffffffffffffffffffffffffff160217905550505061085c806101026000396000f300608060405260043610610083576000357c0100000000000000000000000000000000000000000000000000000000900463ffffffff168063095ea7b31461008857806318160ddd146100d55780636352211e146101005780636914db601461016d57806370a0823114610213578063a9059cbb1461026a578063b2e6ceeb146102b7575b600080fd5b34801561009457600080fd5b506100d3600480360381019080803573ffffffffffffffffffffffffffffffffffffffff169060200190929190803590602001909291905050506102e4565b005b3480156100e157600080fd5b506100ea61044b565b6040518082815260200191505060405180910390f35b34801561010c57600080fd5b5061012b60048036038101908080359060200190929190505050610453565b604051808273ffffffffffffffffffffffffffffffffffffffff1673ffffffffffffffffffffffffffffffffffffffff16815260200191505060405180910390f35b34801561017957600080fd5b5061019860048036038101908080359060200190929190505050610490565b6040518080602001828103825283818151815260200191508051906020019080838360005b838110156101d85780820151818401526020810190506101bd565b50505050905090810190601f1680156102055780820380516001836020036101000a031916815260200191505b509250505060405180910390f35b34801561021f57600080fd5b50610254600480360381019080803573ffffffffffffffffffffffffffffffffffffffff169060200190929190505050610545565b6040518082815260200191505060405180910390f35b34801561027657600080fd5b506102b5600480360381019080803573ffffffffffffffffffffffffffffffffffffffff1690602001909291908035906020019092919050505061058d565b005b3480156102c357600080fd5b506102e2600480360381019080803590602001909291905050506106fc565b005b6102ed81610453565b73ffffffffffffffffffffffffffffffffffffffff163373ffffffffffffffffffffffffffffffffffffffff1614151561032657600080fd5b8173ffffffffffffffffffffffffffffffffffffffff163373ffffffffffffffffffffffffffffffffffffffff161415151561036157600080fd5b80600260003373ffffffffffffffffffffffffffffffffffffffff1673ffffffffffffffffffffffffffffffffffffffff16815260200190815260200160002060008473ffffffffffffffffffffffffffffffffffffffff1673ffffffffffffffffffffffffffffffffffffffff168152602001908152602001600020819055508173ffffffffffffffffffffffffffffffffffffffff163373ffffffffffffffffffffffffffffffffffffffff167f8c5be1e5ebec7d5bd14f71427d1e84f3dd0314c0f7b2291e5b200ac8c7c3b925836040518082815260200191505060405180910390a35050565b600080905090565b60006001600083815260200190815260200160002060009054906101000a900473ffffffffffffffffffffffffffffffffffffffff169050919050565b6060600460008381526020019081526020016000208054600181600116156101000203166002900480601f0160208091040260200160405190810160405280929190818152602001828054600181600116156101000203166002900480156105395780601f1061050e57610100808354040283529160200191610539565b820191906000526020600020905b81548152906001019060200180831161051c57829003601f168201915b50505050509050919050565b60008060008373ffffffffffffffffffffffffffffffffffffffff1673ffffffffffffffffffffffffffffffffffffffff168152602001908152602001600020549050919050565b6000803391508390506003600084815260200190815260200160002060009054906101000a900460ff1615156105c257600080fd5b6105cb83610453565b73ffffffffffffffffffffffffffffffffffffffff168273ffffffffffffffffffffffffffffffffffffffff1614151561060457600080fd5b8073ffffffffffffffffffffffffffffffffffffffff168273ffffffffffffffffffffffffffffffffffffffff161415151561063f57600080fd5b806001600085815260200190815260200160002060006101000a81548173ffffffffffffffffffffffffffffffffffffffff021916908373ffffffffffffffffffffffffffffffffffffffff1602179055508073ffffffffffffffffffffffffffffffffffffffff168273ffffffffffffffffffffffffffffffffffffffff167fddf252ad1be2c89b69c2b068fc378daa952ba7f163c4a11628f55a4df523b3ef856040518082815260200191505060405180910390a350505050565b6000806003600084815260200190815260200160002060009054906101000a900460ff16151561072b57600080fd5b61073483610453565b91503390508173ffffffffffffffffffffffffffffffffffffffff168173ffffffffffffffffffffffffffffffffffffffff161415151561077457600080fd5b806001600085815260200190815260200160002060006101000a81548173ffffffffffffffffffffffffffffffffffffffff021916908373ffffffffffffffffffffffffffffffffffffffff1602179055508073ffffffffffffffffffffffffffffffffffffffff168273ffffffffffffffffffffffffffffffffffffffff167fddf252ad1be2c89b69c2b068fc378daa952ba7f163c4a11628f55a4df523b3ef856040518082815260200191505060405180910390a35050505600a165627a7a7230582092aba6d8dd83c7a1b55f74cfde1d0685208862af6b639e15fd49e6666cdf443b0029",
  "source": "//ERC721’s as non-fungible tokens that can hold metadata\r\n//a proposed* standard that would allow smart contracts to operate as tradeable\r\n//tokens similar to ERC20. ERC721 tokens are unique in that the tokens are non-fungible.\r\n\r\npragma solidity ^0.4.17;\r\n\r\n\r\ncontract Token {\r\n\r\n  uint256 constant private totalTokens = 1000;  //might need array\r\n  mapping(address => uint) private balances;\r\n  mapping(uint256 => address) private tokenOwners;\r\n  mapping(address => mapping (address => uint256)) allowed;\r\n  mapping(uint256 => bool) private tokenExists;\r\n  mapping(uint256 => string) tokenData;\r\n\r\n\r\n\r\n constructor() public {\r\n   uint256 tokenId = 1;\r\n   address owner = 0xa14383847701e86bd9a9d12b55add2c34fac3b05;\r\n\r\n   balances[owner] = 1;\r\n   tokenExists[tokenId] = true;\r\n   tokenOwners[tokenId] = owner;\r\n\r\n }\r\n\r\n  //declare total number of token available\r\n  function totalSupply() constant returns(uint256 totalTokens){\r\n    return totalTokens;\r\n  }\r\n\r\n\r\n  //find out number of token in x account\r\n  function balanceOf(address _owner) constant returns (uint balance) {\r\n    return balances[_owner];\r\n  }\r\n\r\n\r\n  //OWNERSHIP\r\n  //returns address of token owner, verify ownership of a certain token index\r\n  //mapping(uint256 => bool) private tokenExists;\r\n  function ownerOf(uint256 _tokenId) returns (address owner){\r\n    return tokenOwners[_tokenId];\r\n  }\r\n\r\n  function takeOwnership(uint256 _tokenId){\r\n    require(tokenExists[_tokenId]);\r\n    address currentOwner = ownerOf(_tokenId);\r\n    address newOwner = msg.sender;\r\n    require(newOwner != currentOwner);\r\n    tokenOwners[_tokenId] = newOwner;\r\n    Transfer(currentOwner, newOwner, _tokenId);\r\n  }\r\n\r\n\r\n\r\n  //approve function\r\n  function approve(address _to, uint256 _tokenId) {\r\n    require(msg.sender == ownerOf(_tokenId));\r\n    require(msg.sender != _to);\r\n    allowed[msg.sender][_to] = _tokenId;\r\n    Approval(msg.sender, _to, _tokenId);\r\n  }\r\n\r\n\r\n  //transfer function\r\n  function transfer(address _to, uint256 _tokenId) {\r\n    address currentOwner = msg.sender;\r\n    address newOwner = _to;\r\n\r\n    require(tokenExists[_tokenId]);\r\n    require(currentOwner == ownerOf(_tokenId));\r\n    require(currentOwner != newOwner);\r\n\r\n    tokenOwners[_tokenId]=newOwner;\r\n    Transfer(currentOwner, newOwner, _tokenId);\r\n\r\n  }\r\n\r\n  //TODOS\r\n  //discover METADATA STORED IN TOKEN - can store course information etc\r\n  function tokenMetadata(uint256 _tokenId) constant returns (string infoUrl){\r\n    return tokenData[_tokenId];\r\n  }\r\n\r\n\r\n  //transfer\r\n  event Transfer(address indexed _from, address indexed _to, uint256 _tokenId);\r\n\r\n  //approval from 1 authority/ identified by address --\r\n  event Approval(address indexed _owner, address indexed _approved, uint256 _tokenId);\r\n\r\n\r\n  //TODOS\r\n  //automatic transfer?\r\n  //create tokens only by 1 authority\r\n\r\n  /*\r\n  function createToken(uint256_genes) external onlyAuthority {\r\n  uint256 tokenId = _createToken(0,0,0, _genes, address(this));\r\n  tokenCreatedCount ++;\r\n\r\n}\r\n\r\n\r\nfunction getToken(uint256_id) external view returns {\r\nuint256 creationTime,\r\nuint256 variants\r\n}\r\n*/\r\n\r\n\r\n}\r\n",
  "sourcePath": "C:\\Users\\Tris\\Desktop\\token\\contracts\\Token.sol",
  "compiler": {
    "name": "solc",
    "version": "0.4.24+commit.e67f0147.Emscripten.clang"
  },
  "schemaVersion": "2.0.1",
  "updatedAt": "2018-09-16T08:50:27.847Z"
}